:040000000DEF00F010
:040008001FEF13F0E3
:06001800FF002FEF12F0C3
:1010000000303132333435363738396162636465E4
:07101000668340022000008E
:101018001F50800B286E1F501F242A6E1EAE17EF1C
:1010280008F019EF08F01AEF08F02A802A50D8B40F
:1010380020EF08F022EF08F037EF08F02A28D8A4AC
:1010480028EF08F02AEF08F032EF08F0000E1C6EC7
:10105800000E1D6E000E1E6E000E1F6E1E8E000E00
:101068001F6E3FEF08F0000E1C6E000E1D6E000E86
:101078001E6E000E1F6E2350800B296E28502918F3
:10108800D8B449EF08F04BEF08F04CEF08F0288C83
:1010980023502324296E22AE54EF08F056EF08F0AF
:1010A80057EF08F029802950D8B45DEF08F05FEFBA
:1010B80008F074EF08F02928D8A465EF08F067EF66
:1010C80008F06FEF08F0000E206E000E216E000E83
:1010D800226E000E236E228E000E236E7CEF08F027
:1010E800000E206E000E216E000E226E000E236E82
:1010F8002A50295CD8B083EF08F085EF08F0ACEFF0
:1011080008F028AC8AEF08F08CEF08F08EEF08F0B2
:10111800800E281A2AC02BF029C02AF02BC029F0EB
:101128001CC02BF020C01CF02BC020F01DC02BF0E1
:1011380021C01DF02BC021F01EC02BF022C01EF0D4
:101148002BC022F01FC02BF023C01FF02BC023F0B0
:10115800000E2B6E2A5029C024F0256A245E000E4A
:10116800255A25BEC1EF08F0255009E11A0E245C66
:10117800D8A0C1EF08F0C3EF08F0FAEF08F01C5050
:101188001D101E101F10D8A4CCEF08F0CFEF08F0E8
:10119800010ED0EF08F0000E2B6E000E1C6E000E34
:1011A8001D6E000E1E6E000E1F6E29C02AF003EF82
:1011B80009F02BA0E2EF08F0E4EF08F0EAEF08F0FE
:1011C800D8902B3001092B6EECEF08F0D8902B3219
:1011D8001CA0F1EF08F0F3EF08F0F4EF08F02B8E05
:1011E8001F341F321E321D321C322A2A29502A5C13
:1011F800D8A001EF09F003EF09F0DDEF08F028BCF3
:1012080008EF09F00AEF09F04AEF09F02A50D8A4CC
:1012180010EF09F012EF09F01CEF09F0000E1C6E38
:10122800000E1D6E000E1E6E000E1F6E6BEF0AF094
:1012380020501C2621501D2222501E2223501F22DE
:101248001FA029EF09F02BEF09F0D7EF09F02BA029
:1012580030EF09F032EF09F038EF09F0D8902B3071
:1012680001092B6E3AEF09F0D8902B321CA03FEF02
:1012780009F041EF09F042EF09F02B8E1F341F32BD
:101288001E321D321C322A2AD7EF09F020501C5C6E
:1012980021501D5822501E581F50800A246E23507A
:1012A800800A2458D8B05BEF09F05DEF09F088EFA9
:1012B80009F01C50205C246E1D502158256E1E50CC
:1012C8002258266E1F502358276EFF0E24241C6EAA
:1012D800FF0E25201D6EFF0E26201E6EFF0E2720F6
:1012E8001F6E800E281A2B6C2B50D8A47EEF09F0A5
:1012F80080EF09F090EF09F0010E1C26000E1D2268
:101308001E221F2290EF09F020501C5E21501D5A0A
:1013180022501E5A23501F5A1C501D101E101F10F9
:10132800D8A499EF09F09BEF09F0D0EF09F02B5002
:10133800D8A4A1EF09F0A3EF09F0D0EF09F0000E4F
:101348001C6E000E1D6E000E1E6E000E1F6E6BEFE3
:101358000AF0D8901C361D361E361F362BAEB7EF56
:1013680009F0B9EF09F0BAEF09F01C802BA0BFEF24
:1013780009F0C1EF09F0C5EF09F0D8802B36C7EFA7
:1013880009F0D8902B362A50D8B4CDEF09F0CFEF1A
:1013980009F0D0EF09F02A061EAED5EF09F0D7EF15
:1013A80009F0ADEF09F0000E296E2BAEDEEF09F063
:1013B800E0EF09F0F8EF09F02BC024F07F0E2416B7
:1013C800D8B4E9EF09F0EBEF09F0EFEF09F0010EFF
:1013D800296EF8EF09F01CA0F4EF09F0F6EF09F018
:1013E800F8EF09F0EBEF09F02950D8B4FEEF09F057
:1013F80000EF0AF02BEF0AF0010E1C26000E1D224A
:101408001E221F221FA00BEF0AF00DEF0AF02BEF90
:101418000AF01CC024F01DC025F01EC026F01FC015
:1014280027F02734273226322532243224C01CF0F4
:1014380025C01DF026C01EF027C01FF02A28D8B4EA
:1014480028EF0AF02AEF0AF02BEF0AF02A2A2A28B6
:10145800D8B431EF0AF033EF0AF03BEF0AF02A5024
:10146800D8A439EF0AF03BEF0AF04DEF0AF0000E6E
:101478001C6E000E1D6E000E1E6E000E1F6E2A5092
:10148800D8A449EF0AF04BEF0AF04DEF0AF0000E2E
:10149800286E2AA052EF0AF054EF0AF057EF0AF02C
:1014A8001E8E58EF0AF01E9ED8902A301F6E28AE66
:1014B80060EF0AF062EF0AF063EF0AF01F8E1CC0BB
:1014C8001CF01DC01DF01EC01EF01FC01FF0120032
:1014D8000650800B0F6E06500624156E05AE77EF8A
:1014E8000AF079EF0AF07AEF0AF015801550D8B4AF
:1014F80080EF0AF082EF0AF095EF0AF01528D8A4D9
:1015080088EF0AF08AEF0AF092EF0AF0000E036EF5
:10151800000E046E000E056E000E066E058E9DEF21
:101528000AF0000E036E000E046E000E056E000E2B
:10153800066E0A50800B0F1A0A500A24106E09AE64
:10154800A8EF0AF0AAEF0AF0ABEF0AF010801050EB
:10155800D8B4B1EF0AF0B3EF0AF0C6EF0AF01028DA
:10156800D8A4B9EF0AF0BBEF0AF0C3EF0AF0000EF7
:10157800076E000E086E000E096E000E0A6E098EC8
:10158800CEEF0AF0000E076E000E086E000E096E10
:10159800000E0A6E1050D8B4D4EF0AF0D6EF0AF055
:1015A800DEEF0AF01550D8A4DCEF0AF0DEEF0AF0FF
:1015B800E8EF0AF0000E036E000E046E000E056ED2
:1015C800000E066E92EF0CF0095003026F00CCFF7C
:1015D8001AF06F00D0FF1BF01A50116E126A136ACE
:1015E800146A1B50166E176A186A196A08500402A2
:1015F8006F00CCFF1AF06F00D0FF1BF01A501126B5
:10160800000E1222132214221B501626000E172237
:1016180018221922075005026F00CCFF1AF06F003C
:10162800D0FF1BF01A501126000E1222132214228A
:101638001B501626000E17221822192213C014F068
:1016480012C013F011C012F0116A075004026F00A3
:10165800CCFF1AF06F00D0FF1BF01A5011261B5058
:101668001222000E1322000E1422085003026F00EB
:10167800CCFF1AF06F00D0FF1BF01A5011261B5038
:101688001222000E1322000E142213C014F012C0EE
:1016980013F011C012F0116A075003026F00CCFF5B
:1016A8001AF06F00D0FF1BF01A5011261B5012229F
:1016B800000E1322000E1422095004026F00CCFF02
:1016C8001AF06F00D0FF1BF01A5016261B50172275
:1016D800000E1822000E1922085005026F00CCFFD8
:1016E8001AF06F00D0FF1BF01A5016261B50172255
:1016F800000E1822000E1922095005026F00CCFFB7
:101708001AF06F00D0FF1BF01A500B6E1B500C6EB6
:101718000D6A0E6A0DC00EF00CC00DF00BC00CF077
:101728000B6A0B5016260C5017220D5018220E501B
:10173800192211C00BF012C00CF013C00DF014C028
:101748000EF0190EADEF0BF0D8900E320D320C32B0
:101758000B32E82EA8EF0BF00B5016260C50172270
:101768000D5018220E50192213C014F012C013F095
:1017780011C012F0116A105015C00BF00C6A0B263C
:10178800000E0C22820E0B241A6EFF0E0C201B6E0C
:10179800E3EF0BF0D890163617361836193614AE14
:1017A800D8EF0BF0DAEF0BF0DBEF0BF01680D890E8
:1017B80011361236133614361A06D8A01B0618AE80
:1017C800E8EF0BF0EAEF0BF0CEEF0BF0000E106E27
:1017D80014AEF1EF0BF0F3EF0BF017EF0CF0FF0E78
:1017E80011140B6EFF0E12140C6EFF0E13140D6EF7
:1017F8007F0E14140E6E0B500C100D100E10D8B472
:1018080008EF0CF00AEF0CF00EEF0CF0010E106E62
:1018180017EF0CF016A013EF0CF015EF0CF017EF04
:101828000CF00AEF0CF01050D8B41DEF0CF01FEFBD
:101838000CF043EF0CF0010E1626000E17221822AA
:10184800192219A02AEF0CF02CEF0CF043EF0CF042
:1018580016C00BF017C00CF018C00DF019C00EF030
:101868000E340E320D320C320B320BC016F00CC097
:1018780017F00DC018F00EC019F01A4A1B2A1BBE2B
:101888004EEF0CF01B5008E11A28D8A04EEF0CF0D0
:1018980050EF0CF05AEF0CF0000E166E000E176E9B
:1018A800800E186E7F0E196E88EF0CF01BBE67EF66
:1018B8000CF01B5006E11A04D8B065EF0CF067EF86
:1018C8000CF073EF0CF0000E166E000E176E000E83
:1018D800186E000E196E000E0F6E88EF0CF01AC00D
:1018E80015F0FF0E1616FF0E17167F0E1816000EAF
:1018F800191615A082EF0CF084EF0CF085EF0CF0B0
:10190800188ED8901530196E0F50191216C003F0A2
:1019180017C004F018C005F019C006F0120036C050
:1019280007F037C008F038C009F039C00AF020EED7
:101938000CF03450D9263550DA226F0078FF03F0C6
:101948006F0078FF04F06F0078FF05F06F0078FFF4
:1019580006F06CEC0AF003C03AF004C03BF005C096
:101968003CF006C03DF020EE04F03450D926355046
:10197800DA226F0078FF07F06F0078FF08F06F0039
:1019880078FF09F06F0078FF0AF020EE10F034506D
:10199800D9263550DA226F0078FF03F06F0078FF00
:1019A80004F06F0078FF05F06F0078FF06F06CEC2C
:1019B8000AF003C030F004C031F005C032F006C0B0
:1019C80033F020EE24F03450D9263550DA226F0057
:1019D80078FF07F06F0078FF08F06F0078FF09F0D4
:1019E8006F0078FF0AF03AC003F03BC004F03CC037
:1019F80005F03DC006F06CEC0AF003C02CF004C002
:101A08002DF005C02EF006C02FF0DDEC12F02CC032
:101A18003EF02DC03FF02EC040F02FC041F03EC038
:101A28002CF03FC02DF040C02EF041C02FF020EE2A
:101A380008F03450D9263550DA226F0078FF07F0C5
:101A48006F0078FF08F06F0078FF09F06F0078FFEB
:101A58000AF020EE14F03450D9263550DA226F00FF
:101A680078FF03F06F0078FF04F06F0078FF05F04F
:101A78006F0078FF06F06CEC0AF003C030F004C089
:101A880031F005C032F006C033F0DDEC12F0600032
:101A9800D3F0D9FF6000D7F0DAFF6000B3F0DEFFC3
:101AA8006000B7F0DEFF6000BBF0DEFF6000BFF053
:101AB800DEFF20EE04F03450D9263550DA226F00CC
:101AC80078FF07F06F0078FF08F06F0078FF09F0E3
:101AD8006F0078FF0AF020EE1CF03450D9263550FC
:101AE800DA226F0078FF03F06F0078FF04F06F00D0
:101AF80078FF05F06F0078FF06F06CEC0AF003C081
:101B080020F004C021F005C022F006C023F06000D8
:101B1800D3F0D9FF6000D7F0DAFF6F0078FF07F045
:101B28006F0078FF08F06F0078FF09F06F0078FF0A
:101B38000AF020EE18F03450D9263550DA226F001A
:101B480078FF03F06F0078FF04F06F0078FF05F06E
:101B58006F0078FF06F06CEC0AF003C01CF004C0BC
:101B68001DF005C01EF006C01FF00CEC08F01CC0EC
:101B780042F01DC043F01EC044F01FC045F042C0F3
:101B88001CF043C01DF044C01EF045C01FF020EEFD
:101B980008F03450D9263550DA226F0078FF07F064
:101BA8006F0078FF08F06F0078FF09F06F0078FF8A
:101BB8000AF020EE20F03450D9263550DA226F0092
:101BC80078FF03F06F0078FF04F06F0078FF05F0EE
:101BD8006F0078FF06F06CEC0AF003C020F004C038
:101BE80021F005C022F006C023F00CEC08F020EE2E
:101BF8002CF03450D9263550DA22600073F0DEFF1D
:101C0800600077F0DEFF60007BF0DEFF60007FF0B1
:101C1800DEFF20EE04F03450D9263550DA2210EEDB
:101C280008F03450E1263550E2226F007BFFE6FFD2
:101C38006F007BFFE6FF6F007BFFE6FF6F007BFF17
:101C4800E6FF6000D3F0D9FF6000D7F0DAFF10EEAE
:101C580004F03450E1263550E2226F007BFFE6FFA6
:101C68006F007BFFE6FF6F007BFFE6FF6F007BFFE7
:101C7800E6FF20EE2CF03450D9263550DA226F00DA
:101C880078FF34F06F0078FF35F06F0078FF36F09A
:101C98006F0078FF37F012006DEC13F0D28EFBEC7A
:101CA80013F0A9EC12F0040E036E010E046E00ECA2
:101CB80013F09F0E036E010E046E930E056E010E57
:101CC800066E6D0E076E000E086E860E096E9D0E6E
:101CD8000A6E260E0B6E3F0E0C6E190E0D6E010E5F
:101CE8000E6EB0EC10F0870E036E010E046E7B0EC4
:101CF800056E010E066E6D0E076E000E086E050E5F
:101D0800096E290E0A6E640E0B6E3F0E0C6E4A0E9B
:101D18000D6E010E0E6EB0EC10F0EE0E036E270E77
:101D2800046EE1EC13F0060E3E01F16F3D01148FD5
:101D380000016C05D8A4A3EF0EF0A5EF0EF09FEFFD
:101D48000FF0000E6C6FC7EC13F003C060F004C016
:101D580061F061C083F00001846B83BF84690F0E5A
:101D68008317000E8417010E8325F66E100E84214A
:101D7800F76EF86A000EF82208006F00D4FF6AF0C8
:101D880060C083F061C084F0040E856F84358433AD
:101D98008333852FCAEF0EF00F0E8317000E8417BA
:101DA800010E8325F66E100E8421F76EF86A000E78
:101DB800F82208006F00D4FF69F00F0E6015836FDA
:101DC800000E6115846F010E8325F66E100E8421B6
:101DD800F76EF86A000EF82208006F00D4FF68F06A
:101DE80060C003F061C004F0000E04BEFF0E056E73
:101DF800066E010ED6EC0FF003C036F004C037F0C3
:101E080005C038F006C039F0190E346E010E356E73
:101E180093EC0CF034C000F135C001F136C002F18A
:101E280037C003F100C136F001C137F002C138F004
:101E380003C139F04A0E346E010E356E93EC0CF086
:101E480034C046F035C047F036C048F037C049F0D6
:101E580057EC11F046C079F047C07AF07AC083F0A9
:101E68000001846B83BF84690F0E8317000E8417EB
:101E7800010E8325F66E100E8421F76EF86A000EA7
:101E8800F82208006F00D4FF67F079C083F07AC0A9
:101E980084F0040E856F843584338333852F4FEFA8
:101EA8000FF00F0E8317000E8417010E8325F66EB0
:101EB800100E8421F76EF86A000EF82208006F00F1
:101EC800D4FF66F00F0E7915836F000E7A15846FB4
:101ED800010E8325F66E100E8421F76EF86A000E47
:101EE800F82208006F00D4FF65F07A510F0B300913
:101EF800646F79C063F06A51A1EC13F00001695175
:101F0800A1EC13F000016851A1EC13F02C0EA1EC28
:101F180013F000016451A1EC13F000016651A1EC2B
:101F280013F000016551A1EC13F00A0EA1EC13F0B7
:101F3800010E00016B6F6251D8A4A5EF0FF0A7EF57
:101F48000FF0BCEF0FF06B51D8B4ADEF0FF0AFEF5F
:101F58000FF0BCEF0FF0BE90000E6B6F6451E6EC13
:101F680013F000016351E6EC13F0010E0001626FFB
:101F78003D0117ABC2EF0FF0C4EF0FF09CEF0EF06E
:101F880000016251D8B4CBEF0FF0CDEF0FF09CEF0A
:101F98000EF0000E626FBE80BB98BB889CEF0EF0FF
:101FA8000DEF00F00B6E0B50D8B4DDEF0FF0DFEF44
:101FB8000FF001EF10F006BEE6EF0FF0E4EF0FF0C0
:101FC80001EF10F003C007F004C008F005C009F0E5
:101FD80006C00AF0071E081E091E0A1E072A000E60
:101FE800082209220A2207C00DF008C00EF009C015
:101FF8000FF00AC010F009EF10F003C00DF004C094
:102008000EF005C00FF006C010F0035004100510C4
:102018000610D8A412EF10F014EF10F01EEF10F015
:10202800000E036E000E046E000E056E000E066EA6
:10203800AFEF10F0960E0C6E28EF10F00C2AD89027
:1020480010320F320E320D32000E0D14076E000ED4
:102058000E14086E000E0F14096EFE0E10140A6E90
:102068000750081009100A10D8A43DEF10F03FEFF0
:1020780010F022EF10F04DEF10F00C2A010E0D2693
:10208800000E0E220F221022D89010320F320E327C
:102098000D32000E0D14076E000E0E14086E000EA1
:1020A8000F14096EFF0E10140A6E0750081009105D
:1020B8000A10D8A462EF10F064EF10F041EF10F0AE
:1020C8006CEF10F00C06D8900D360E360F36103621
:1020D8000FBE71EF10F073EF10F07BEF10F0020EEF
:1020E8000C6079EF10F07BEF10F066EF10F00CB099
:1020F80080EF10F082EF10F083EF10F00F9ED89071
:102108000C320CC007F0086A096A0A6A07C00AF0AC
:10211800096A086A076A07500D1208500E1209501A
:102128000F120A5010120B50D8B49DEF10F09FEF09
:1021380010F0A7EF10F006BEA6EF10F0A4EF10F015
:10214800A7EF10F0108E0DC003F00EC004F00FC002
:1021580005F010C006F01200000E146E000E136E8B
:10216800D8901334D96E1434DA6ED890D936DA365A
:102178000350D9260450DA2213C00FF014C010F00F
:10218800D8900F361036D8900F3610360F500D24D1
:10219800116E10500E20126E180E1124E16E000EF2
:1021A8001220E26E6F007BFFE6FF6F007BFFE6FF09
:1021B8006F007BFFE6FF6F007BFFE6FFD8901334CC
:1021C800D96E1434DA6ED890D936DA360550D92655
:1021D8000650DA2213C00FF014C010F0D8900F3652
:1021E8001036D8900F3610360F500D24116E10503F
:1021F8000E20126E0C0E1124E16E000E1220E26EFB
:102208006F007BFFE6FF6F007BFFE6FF6F007BFF41
:10221800E6FF6F007BFFE6FFD8901334D96E1434C5
:10222800DA6ED890D936DA360750D9260850DA222D
:10223800D8901334E16E1434E26ED890E136E23669
:102248000D50E1260E50E2226F007BFFE6FF6F0083
:102258007BFFE6FF6F007BFFE6FF6F007BFFE6FF7B
:1022680020EE24F00D50D9260E50DA22600027F017
:10227800DEFF60002BF0DEFF60002FF0DEFF600065
:1022880033F0DEFF134A142A14BE54EF11F0145031
:1022980009E1030E135CD8A054EF11F056EF11F0CA
:1022A800B4EF10F01200483449344F6E4F50D8A4A0
:1022B80060EF11F062EF11F06CEF11F0000E466E56
:1022C800000E476E000E486E000E496ED9EF11F0F1
:1022D80046C04AF047C04BF048C04CF049C04DF0EA
:1022E800200E7CEF11F0D8904D324C324B324A32EE
:1022F800E82E77EF11F04A504E6E488EFF0E4616C4
:10230800FF0E4716FF0E4816000E4916960E4F5E32
:102318004FBE93EF11F091EF11F0A9EF11F04F506C
:10232800800A970FD8B09BEF11F09DEF11F09FEF47
:1023380011F062EF11F0D8904932483247324632F4
:102348004F3E9FEF11F0C1EF11F01F0E4F64AFEF3A
:1023580011F0B1EF11F0B9EF11F062EF11F0D89070
:1023680046364736483649364F064F50D8A4BFEF51
:1023780011F0C1EF11F0B3EF11F04E50D8B4C7EF20
:1023880011F0C9EF11F0D1EF11F0491E481E471E98
:10239800466C000E47224822492246C046F047C0F4
:1023A80047F048C048F049C049F01200010EBE6E1F
:1023B800000EBD6E000EBA6E100EBB6E000EBC6E27
:1023C800060EC66EC268EF0EC36E970EC46EEF0E91
:1023D800C56E3A017069670E606FEF0E506F060E9A
:1023E800806F4069000E716F000E816F000E516F93
:1023F800000E416F000E616F000E5A6F000E5B6F8A
:10240800000E6A6F000E6B6F000E7A6F000E7B6F06
:10241800000E826F000E426F000E526F000E626F48
:10242800000E726F4369536963697369070E836F9E
:1024380044695469646974690F0E846F130EDE6F02
:102448001E0E136F1F0E156F130E166F170EE56F06
:10245800140EDF6F12007A0EF66E260EF76E000E5F
:10246800F86E00EE7BF110EE30F009006F00D7FF38
:10247800EEFFE550E150F9E1DE0EF66E270EF76E3D
:10248800000EF86E00EE7BF010EE08F009006F0009
:10249800D7FFEEFFE550E150F9E1D60EF66E270EB4
:1024A800F76E000EF86E00EE50F010EE08F009001E
:1024B8006F00D7FFEEFFE550E150F9E100EE60F064
:1024C8001B0EEE6AE806FDE15C6A080ED56E000E8A
:1024D800D66E000ED76E000150EF0EF0000E3E01D2
:1024E800DE6F000EDF6F000EE06F000EE16F000E72
:1024F800E46F000EE56F000EEA6F000EEC6F000E41
:10250800F16F000EF36F000EF46F000EF56F000E02
:10251800F66F000EF76F000EF96F000EFA6F000EDF
:10252800FB6F000EFC6F030EFD6F040EFE6F1F0E97
:10253800FF6F840EF86F3901A1959185FA0E036E2D
:10254800270E046EE1EC13F01200000E3D01EC6F53
:10255800000EED6F000EEE6F000EEF6F000EF06FC5
:10256800000EF16FB00EF26F800EF36F000EF46F75
:10257800070EF56F000EF66F000EF76F000EF86F7E
:10258800000EF96F000EFA6F000E036E000E046E57
:10259800D7EC13F0000E036E000E046ED2EC13F0AD
:1025A800000E036E000E046EDCEC13F0000E5C6E81
:1025B8001200000E301A000E311A000E321A800E68
:1025C800331A2CC01CF02DC01DF02EC01EF02FC0D9
:1025D8001FF030C020F031C021F032C022F033C0EB
:1025E80023F00CEC08F01CC02CF01DC02DF01EC010
:1025F8002EF01FC02FF0120020EE0FF00350D92646
:102608000450DA22000EDE6E000EDD6E20EE11F0B0
:102618000350D9260450DA22000EDE6E000EDD6E5D
:1026280020EE13F00350D9260450DA22000EDE6E95
:10263800000EDD6E12006F00E8FF01F06F00ECFF86
:1026480002F0390191A52BEF13F02DEF13F036EFBF
:1026580013F0A1A532EF13F034EF13F036EF13F0B7
:1026680055EC13F060000BF0FBFF600007F0FAFF79
:1026780011000000803F121394BFE49FE43E000065
:10268800803F000000C00000803F0000803F0F45F1
:10269800E5BF1C62683F0000803F000000C00000EA
:1026A800803F3901A19558505910D8B45EEF13F006
:1026B80060EF13F06CEF13F002D86CEF13F0050025
:1026C800FA6E5850FD6E5950FE6EFF6AFA501200AD
:1026D8001200FBEC13F080EC13F0DAEC11F0BBEC19
:1026E80013F0F3EC13F072EC12F092EC13F0A9EC87
:1026F80012F0AEEC13F01200000E3901C06F000E9C
:10270800C16F000EC26F000EC36F000EC46F000EC3
:10271800C56F000EC66F000EC76F1200010EAE6EB9
:10272800000EAD6E000EAF6EB80EAB6E000EAA6E48
:102738003901A495DE0EAC6E1200036E3901A3A90F
:10274800A8EF13F0AAEF13F0A2EF13F060000FF058
:10275800EAFD1200830E3D01146F400E156F020E44
:10276800166F000E1C6F200E196FC4961200600EB3
:102778003901D96F000EDB6F000EDD6F080EDF6FB9
:10278800000EDE6F12003E01F051066E056AEF5131
:102798000524036E000E0620046E120003C086F0A6
:1027A80004C087F0120003C05AF004C05BF01200A6
:1027B80003C0ABF104C0ACF1120003C058F004C070
:1027C80059F01200036E60000FF011FD1200930122
:1027D8007B0187019F010529643F869D263F820E64
:1027E8003E01C16F1200010E00016C6F1200D29AF7
:0427F80012001200B9
:020000040020DA
:10000000FF0FFF0FFF0FFF0FFF0FFF0FFF0FFF0F80
:020000040030CA
:0A0000008CFFF7FF9FFFFFFFFFFFDB
:00000001FF
