:040000000DEF00F010
:0400080048EF14F0B9
:06001800FF0058EF13F099
:071000000083400220000004
:101008000650800B0F6E06500624116E05AE0FEFCA
:1010180008F011EF08F012EF08F011801150D8B461
:1010280018EF08F01AEF08F02FEF08F01128D8A4ED
:1010380020EF08F022EF08F02AEF08F0000E036E08
:10104800000E046E000E056E000E066E058E000E74
:10105800066E37EF08F0000E036E000E046E000EE9
:10106800056E000E066E0A50800B106E0F50101899
:10107800D8B441EF08F043EF08F044EF08F00F8CC4
:101088000A500A24106E09AE4CEF08F04EEF08F033
:101098004FEF08F010801050D8B455EF08F057EF14
:1010A80008F06CEF08F01028D8A45DEF08F05FEFA7
:1010B80008F067EF08F0000E076E000E086E000ECD
:1010C800096E000E0A6E098E000E0A6E74EF08F0A3
:1010D800000E076E000E086E000E096E000E0A6EF6
:1010E8001150105CD8B07BEF08F07DEF08F0A4EF4A
:1010F80008F00FAC82EF08F084EF08F086EF08F0F4
:10110800800E0F1A11C012F010C011F012C010F0AA
:1011180003C012F007C003F012C007F004C012F0B9
:1011280008C004F012C008F005C012F009C005F0AC
:1011380012C009F006C012F00AC006F012C00AF088
:10114800000E126E115010C00BF00C6A0B5E000EF0
:101158000C5A0CBEB9EF08F00C5009E11A0E0B5CE2
:10116800D8A0B9EF08F0BBEF08F0F2EF08F0035091
:10117800041005100610D8A4C4EF08F0C7EF08F053
:10118800010EC8EF08F0000E126E000E036E000E7E
:10119800046E000E056E000E066E10C011F0FBEF17
:1011A80008F012A0DAEF08F0DCEF08F0E2EF08F040
:1011B800D89012300109126EE4EF08F0D89012327C
:1011C80003A0E9EF08F0EBEF08F0ECEF08F0128E5F
:1011D80006340632053204320332112A1050115CEB
:1011E800D8A0F9EF08F0FBEF08F0D5EF08F00FBC36
:1011F80000EF09F002EF09F042EF09F01150D8A40E
:1012080008EF09F00AEF09F014EF09F0000E036E79
:10121800000E046E000E056E000E066E63EF0AF0F7
:101228000750032608500422095005220A500622B6
:1012380006A021EF09F023EF09F0CFEF09F012A083
:1012480028EF09F02AEF09F030EF09F0D8901230B2
:101258000109126E32EF09F0D890123203A037EF6D
:1012680009F039EF09F03AEF09F0128E0634063228
:10127800053204320332112ACFEF09F00750035C1C
:1012880008500458095005580650800A0B6E0A5039
:10129800800A0B58D8B053EF09F055EF09F080EFEA
:1012A80009F00350075C0B6E045008580C6E05508B
:1012B80009580D6E06500A580E6EFF0E0B24036E69
:1012C800FF0E0C20046EFF0E0D20056EFF0E0E2083
:1012D800066E800E0F1A126C1250D8A476EF09F021
:1012E80078EF09F088EF09F0010E0326000E0422BA
:1012F8000522062288EF09F00750035E0850045AB9
:101308000950055A0A50065A0350041005100610D1
:10131800D8A491EF09F093EF09F0C8EF09F0125043
:10132800D8A499EF09F09BEF09F0C8EF09F0000E77
:10133800036E000E046E000E056E000E066E63EF5F
:101348000AF0D890033604360536063612AEAFEFEB
:1013580009F0B1EF09F0B2EF09F0038012A0B7EF7E
:1013680009F0B9EF09F0BDEF09F0D8801236BFEFE8
:1013780009F0D89012361150D8B4C5EF09F0C7EF6C
:1013880009F0C8EF09F0110605AECDEF09F0CFEF6F
:1013980009F0A5EF09F0000E106E12AED6EF09F0B5
:1013A800D8EF09F0F0EF09F012C00BF07F0E0B1622
:1013B800D8B4E1EF09F0E3EF09F0E7EF09F0010E27
:1013C800106EF0EF09F003A0ECEF09F0EEEF09F072
:1013D800F0EF09F0E3EF09F01050D8B4F6EF09F098
:1013E800F8EF09F023EF0AF0010E0326000E04229D
:1013F8000522062206A003EF0AF005EF0AF023EF04
:101408000AF003C00BF004C00CF005C00DF006C0D4
:101418000EF00E340E320D320C320B320BC003F0CC
:101428000CC004F00DC005F00EC006F01128D8B4A9
:1014380020EF0AF022EF0AF023EF0AF0112A112810
:10144800D8B429EF0AF02BEF0AF033EF0AF0115065
:10145800D8A431EF0AF033EF0AF045EF0AF0000E96
:10146800036E000E046E000E056E000E066E11501F
:10147800D8A441EF0AF043EF0AF045EF0AF0000E56
:101488000F6E11A04AEF0AF04CEF0AF04FEF0AF086
:10149800058E50EF0AF0059ED8901130066E0FAEFB
:1014A80058EF0AF05AEF0AF05BEF0AF0068E03C015
:1014B80003F004C004F005C005F006C006F01200F1
:1014C8001F50800B286E1F501F242E6E1EAE6FEF0C
:1014D8000AF071EF0AF072EF0AF02E802E50D8B49D
:1014E80078EF0AF07AEF0AF08DEF0AF02E28D8A4E8
:1014F80080EF0AF082EF0AF08AEF0AF0000E1C6E05
:10150800000E1D6E000E1E6E000E1F6E1E8E95EFD5
:101518000AF0000E1C6E000E1D6E000E1E6E000EF0
:101528001F6E2350800B281A23502324296E22AEC5
:10153800A0EF0AF0A2EF0AF0A3EF0AF029802950E1
:10154800D8B4A9EF0AF0ABEF0AF0BEEF0AF02928E9
:10155800D8A4B1EF0AF0B3EF0AF0BBEF0AF0000E1F
:10156800206E000E216E000E226E000E236E228E5B
:10157800C6EF0AF0000E206E000E216E000E226EDD
:10158800000E236E2950D8B4CCEF0AF0CEEF0AF043
:10159800D6EF0AF02E50D8A4D4EF0AF0D6EF0AF00E
:1015A800E0EF0AF0000E1C6E000E1D6E000E1E6E9F
:1015B800000E1F6E8AEF0CF022501C026F00CCFF49
:1015C80033F06F00D0FF34F033502A6E2B6A2C6A48
:1015D8002D6A34502F6E306A316A326A21501D02EA
:1015E8006F00CCFF33F06F00D0FF34F033502A2661
:1015F800000E2B222C222D2234502F26000E3022B2
:101608003122322220501E026F00CCFF33F06F00CF
:10161800D0FF34F033502A26000E2B222C222D2204
:1016280034502F26000E3022312232222CC02DF0C9
:101638002BC02CF02AC02BF02A6A20501D026F0004
:10164800CCFF33F06F00D0FF34F033502A263450EB
:101658002B22000E2C22000E2D2221501C026F007E
:10166800CCFF33F06F00D0FF34F033502A263450CB
:101678002B22000E2C22000E2D222CC02DF02BC068
:101688002CF02AC02BF02A6A20501C026F00CCFFD5
:1016980033F06F00D0FF34F033502A2634502B2219
:1016A800000E2C22000E2D2222501D026F00CCFFAE
:1016B80033F06F00D0FF34F033502F2634503022EF
:1016C800000E3122000E322221501E026F00CCFF84
:1016D80033F06F00D0FF34F033502F2634503022CF
:1016E800000E3122000E322222501E026F00CCFF63
:1016F80033F06F00D0FF34F03350246E3450256E31
:10170800266A276A26C027F025C026F024C025F0BF
:10171800246A24502F262550302226503122275063
:1017280032222AC024F02BC025F02CC026F02DC070
:1017380027F0190EA5EF0BF0D89027322632253264
:101748002432E82EA0EF0BF024502F26255030220B
:1017580026503122275032222CC02DF02BC02CF0DD
:101768002AC02BF02A6A29502EC024F0256A242684
:10177800000E2522820E2424336EFF0E2520346E9F
:10178800DBEF0BF0D8902F363036313632362DAEAF
:10179800D0EF0BF0D2EF0BF0D3EF0BF02F80D890F7
:1017A8002A362B362C362D363306D8A0340631AEE1
:1017B800E0EF0BF0E2EF0BF0C6EF0BF0000E296E36
:1017C8002DAEE9EF0BF0EBEF0BF00FEF0CF0FF0E87
:1017D8002A14246EFF0E2B14256EFF0E2C14266E71
:1017E8007F0E2D14276E2450251026102710D8B4EC
:1017F80000EF0CF002EF0CF006EF0CF0010E296E72
:101808000FEF0CF02FA00BEF0CF00DEF0CF00FEF1B
:101818000CF002EF0CF02950D8B415EF0CF017EFCC
:101828000CF03BEF0CF0010E2F26000E3022312277
:10183800322232A022EF0CF024EF0CF03BEF0CF038
:101848002FC024F030C025F031C026F032C027F078
:101858002734273226322532243224C02FF025C0DF
:1018680030F026C031F027C032F0334A342A34BE73
:1018780046EF0CF0345008E13328D8A046EF0CF0BE
:1018880048EF0CF052EF0CF0000E2F6E000E306E89
:10189800800E316E7F0E326E80EF0CF034BE5FEF3B
:1018A8000CF0345006E13304D8B05DEF0CF05FEF74
:1018B8000CF06BEF0CF0000E2F6E000E306E000E69
:1018C800316E000E326E000E286E80EF0CF033C0C1
:1018D8002EF0FF0E2F16FF0E30167F0E3116000E5B
:1018E80032162EA07AEF0CF07CEF0CF07DEF0CF0A6
:1018F800318ED8902E30326E285032122FC01CF004
:1019080030C01DF031C01EF032C01FF0120020EEB2
:1019180004F03D50D9263E50DA226F0078FF20F0BF
:101928006F0078FF21F06F0078FF22F06F0078FFDA
:1019380023F020EE10F03D50D9263E50DA226F00F9
:1019480078FF1CF06F0078FF1DF06F0078FF1EF025
:101958006F0078FF1FF064EC0AF01CC039F01DC05E
:101968003AF01EC03BF01FC03CF03FC020F040C022
:1019780021F041C022F042C023F020EE24F03D5077
:10198800D9263E50DA226F0078FF1CF06F0078FFEE
:101998001DF06F0078FF1EF06F0078FF1FF064ECF9
:1019A8000AF01CC035F01DC036F01EC037F01FC04D
:1019B80038F006EC14F035C043F036C044F037C0B8
:1019C80045F038C046F020EE08F03D50D9263E508C
:1019D800DA226F0078FF20F06F0078FF21F06F00A7
:1019E80078FF22F06F0078FF23F020EE14F03D50CE
:1019F800D9263E50DA226F0078FF1CF06F0078FF7E
:101A08001DF06F0078FF1EF06F0078FF1FF064EC88
:101A18000AF01CC039F01DC03AF01EC03BF01FC0D0
:101A28003CF043C035F044C036F045C037F046C0FE
:101A380038F006EC14F035C047F036C048F037C02F
:101A480049F038C04AF020EE0CF03D50D9263E50FF
:101A5800DA226F0078FF07F06F0078FF08F06F0058
:101A680078FF09F06F0078FF0AF0000E036E000E91
:101A7800046E800E056E3F0E066E5AEC0EF003C023
:101A88001CF004C01DF005C01EF006C01FF047C0C2
:101A980020F048C021F049C022F04AC023F064EC8D
:101AA8000AF06000F7F0D9FF6000FBF0DAFF600091
:101AB80073F0DEFF600077F0DEFF60007BF0DEFF92
:101AC80060007FF0DEFF20EE04F03D50D9263E5046
:101AD800DA226F0078FF20F06F0078FF21F06F00A6
:101AE80078FF22F06F0078FF23F020EE1CF03D50C5
:101AF800D9263E50DA226F0078FF1CF06F0078FF7D
:101B08001DF06F0078FF1EF06F0078FF1FF064EC87
:101B18000AF01CC007F01DC008F01EC009F01FC065
:101B28000AF06000F7F0D9FF6000FBF0DAFF6F0001
:101B380078FF20F06F0078FF21F06F0078FF22F027
:101B48006F0078FF23F020EE18F03D50D9263E5064
:101B5800DA226F0078FF1CF06F0078FF1DF06F002D
:101B680078FF1EF06F0078FF1FF064EC0AF01CC0CD
:101B780003F01DC004F01EC005F01FC006F004EC01
:101B880008F003C04BF004C04CF005C04DF006C08F
:101B98004EF04BC003F04CC004F04DC005F04EC0F1
:101BA80006F020EE08F03D50D9263E50DA226F00AC
:101BB80078FF20F06F0078FF21F06F0078FF22F0A7
:101BC8006F0078FF23F020EE20F03D50D9263E50DC
:101BD800DA226F0078FF1CF06F0078FF1DF06F00AD
:101BE80078FF1EF06F0078FF1FF064EC0AF01CC04D
:101BF80007F01DC008F01EC009F01FC00AF004EC71
:101C080008F020EE2CF03D50D9263E50DA22600034
:101C18000FF0DEFF600013F0DEFF600017F0DEFF5C
:101C280060001BF0DEFF20EE04F03D50D9263E5048
:101C3800DA2210EE08F03D50E1263E50E2226F0015
:101C48007BFFE6FF6F007BFFE6FF6F007BFFE6FF91
:101C58006F007BFFE6FF6000F7F0D9FF6000FBF044
:101C6800DAFF10EE04F03D50E1263E50E2226F000C
:101C78007BFFE6FF6F007BFFE6FF6F007BFFE6FF61
:101C88006F007BFFE6FF20EE2CF03D50D9263E503A
:101C9800DA226F0078FF3DF06F0078FF3EF06F00AA
:101CA80078FF3FF06F0078FF40F012000650800B7D
:101CB800136E065006241A6E05AE65EF0EF067EF38
:101CC8000EF068EF0EF01A801A50D8B46EEF0EF0CE
:101CD80070EF0EF085EF0EF01A28D8A476EF0EF00C
:101CE80078EF0EF080EF0EF0000E036E000E046E1B
:101CF800000E056E000E066E058E000E066E8DEF48
:101D08000EF0000E036E000E046E000E056E000E3F
:101D1800066E0A50800B131A0A500A241B6E09AE6D
:101D280098EF0EF09AEF0EF09BEF0EF01B801B5011
:101D3800D8B4A1EF0EF0A3EF0EF0B8EF0EF01B2809
:101D4800D8A4A9EF0EF0ABEF0EF0B3EF0EF0000E33
:101D5800076E000E086E000E096E000E0A6E098EE0
:101D6800000E0A6EC0EF0EF0000E076E000E086E31
:101D7800000E096E000E0A6E0750081009100A10AE
:101D8800D8A4C9EF0EF0CBEF0EF0E3EF0EF0000E83
:101D9800036E000E046E000E056E000E066E800EB9
:101DA80005127F0E06121350061203C003F004C07A
:101DB80004F005C005F006C006F026EF10F01A5032
:101DC800D8A4E9EF0EF0EBEF0EF0F5EF0EF0000EF1
:101DD800036E000E046E000E056E000E066E26EFF2
:101DE80010F01B501AC00BF00C6A0B5E000E0C5A58
:101DF8007F0E0B24146E000E0C20156E03C00FF01E
:101E080004C010F005C011F006C012F0000E036EF9
:101E1800000E046E000E056E000E066E000E166EA5
:101E2800000E176E000E186E000E196E000E1B6E57
:101E380056EF0FF01B50D8B424EF0FF026EF0FF039
:101E48003DEF0FF0D8900F36103611361236D89075
:101E5800033604360536063619AE35EF0FF037EF80
:101E68000FF038EF0FF00380D89016361736183673
:101E7800193607500F5C08501058095011580A506D
:101E88001258D8A04AEF0FF04CEF0FF055EF0FF0B3
:101E9800198C07500F5E0850105A0950115A0A50F1
:101EA800125A1B2A190E1B645CEF0FF05EEF0FF03D
:101EB8001EEF0FF00F50101011101210D8B467EF6A
:101EC8000FF069EF0FF081EF0FF0168081EF0FF040
:101ED800D890033604360536063619AE76EF0FF07D
:101EE80078EF0FF079EF0FF00380D8901636173699
:101EF800183619361406D8A0150605AE86EF0FF069
:101F080088EF0FF06CEF0FF0000E1B6E19AE8FEF1D
:101F18000FF091EF0FF0B5EF0FF0FF0E16140B6EE8
:101F2800FF0E17140C6EFF0E18140D6E7F0E191489
:101F38000E6E0B500C100D100E10D8B4A6EF0FF04B
:101F4800A8EF0FF0ACEF0FF0010E1B6EB5EF0FF01E
:101F580003A0B1EF0FF0B3EF0FF0B5EF0FF0A8EF5C
:101F68000FF01B50D8B4BBEF0FF0BDEF0FF0E1EF4F
:101F78000FF0010E0326000E04220522062206A0F9
:101F8800C8EF0FF0CAEF0FF0E1EF0FF003C00BF04E
:101F980004C00CF005C00DF006C00EF00E340E3271
:101FA8000D320C320B320BC003F00CC004F00DC024
:101FB80005F00EC006F0144A152A15BEECEF0FF016
:101FC800155008E11428D8A0ECEF0FF0EEEF0FF051
:101FD800F9EF0FF0000E156E1468000E036E000E78
:101FE800046E000E056E000E066E15BE06EF10F0AC
:101FF800155006E11404D8B004EF10F006EF10F005
:1020080014EF10F0000E156E000E146E000E036E25
:10201800000E046E000E056E000E066E000E136EA6
:1020280014C01AF01AA01BEF10F01DEF10F020EFEB
:1020380010F0058E21EF10F0059ED8901A30066E2C
:10204800D7EF0EF012000B6E0B50D8B42EEF10F035
:1020580030EF10F052EF10F006BE37EF10F035EF0A
:1020680010F052EF10F003C007F004C008F005C0EC
:1020780009F006C00AF0071E081E091E0A1E072AD4
:10208800000E082209220A2207C00DF008C00EF02F
:1020980009C00FF00AC010F05AEF10F003C00DF09D
:1020A80004C00EF005C00FF006C010F00350041075
:1020B80005100610D8A463EF10F065EF10F06FEF6D
:1020C80010F0000E036E000E046E000E056E000E7A
:1020D800066E00EF11F0960E0C6E79EF10F00C2AD8
:1020E800D89010320F320E320D32000E0D14076EDA
:1020F800000E0E14086E000E0F14096EFE0E10145A
:102108000A6E0750081009100A10D8A48EEF10F0B4
:1021180090EF10F073EF10F09EEF10F00C2A010E04
:102128000D26000E0E220F221022D89010320F32E8
:102138000E320D32000E0D14076E000E0E14086ECE
:10214800000E0F14096EFF0E10140A6E07500810C7
:1021580009100A10D8A4B3EF10F0B5EF10F092EF01
:1021680010F0BDEF10F00C06D8900D360E360F3675
:1021780010360FBEC2EF10F0C4EF10F0CCEF10F025
:10218800020E0C60CAEF10F0CCEF10F0B7EF10F0B1
:102198000CB0D1EF10F0D3EF10F0D4EF10F00F9E89
:1021A800D8900C320CC007F0086A096A0A6A07C09E
:1021B8000AF0096A086A076A07500D1208500E12D9
:1021C80009500F120A5010120B50D8B4EEEF10F04D
:1021D800F0EF10F0F8EF10F006BEF7EF10F0F5EFA3
:1021E80010F0F8EF10F0108E0DC003F00EC004F0E0
:1021F8000FC005F010C006F0120097EC14F0D28E54
:1022080018EC15F0040E036E010E046E29EC14F0A0
:102218009F0E036E010E046E930E056E010E066E80
:10222800670E076E000E086E9D0E096E790E0A6E17
:10223800720E0B6E3F0E0C6E190E0D6E010E0E6EA9
:10224800DAEC11F0870E036E010E046E7B0E056E3C
:10225800010E066E670E076E000E086E050E096EFB
:10226800290E0A6E640E0B6E3F0E0C6E4A0E0D6E32
:10227800010E0E6EDAEC11F0220E036E2A0E046EB9
:1022880003EC15F0060E3E01F16F3D01148F0001BD
:102298006605D8A452EF11F054EF11F0A3EF11F036
:1022A800000E666FE4EC14F003C060F004C061F047
:1022B80060C003F061C004F0000E04BEFF0E056E9E
:1022C800066E010E27EC10F003C03FF004C040F08A
:1022D80005C041F006C042F0190E3D6E010E3E6E7B
:1022E8008BEC0CF03DC000F13EC001F13FC002F1A3
:1022F80040C003F100C13FF001C140F002C141F00C
:1023080003C142F04A0E3D6E010E3E6E8BEC0CF09E
:102318003DC04FF03EC050F03FC051F040C052F0B9
:1023280081EC12F04FC073F050C074F0000174518A
:102338000F0B3009646F73C063F0010E656F625153
:10234800D8A4A9EF11F0ABEF11F0C0EF11F065516F
:10235800D8B4B1EF11F0B3EF11F0C0EF11F0BE90A7
:10236800000E656F645108EC15F00001635108EC2C
:1023780015F0010E0001626F3D0117ABC6EF11F0B9
:10238800C8EF11F04BEF11F000016251D8B4CFEF54
:1023980011F0D1EF11F04BEF11F0000E626FBE801B
:1023A800BB98BB884BEF11F00DEF00F0000E146ED8
:1023B800000E136ED8901334D96E1434DA6ED89098
:1023C800D936DA360350D9260450DA2213C00FF072
:1023D80014C010F0D8900F361036D8900F3610363B
:1023E8000F500D24116E10500E20126E180E11246D
:1023F800E16E000E1220E26E6F007BFFE6FF6F00B9
:102408007BFFE6FF6F007BFFE6FF6F007BFFE6FFC9
:10241800D8901334D96E1434DA6ED890D936DA36A7
:102428000550D9260650DA2213C00FF014C010F058
:10243800D8900F361036D8900F3610360F500D241E
:10244800116E10500E20126E0C0E1124E16E000E4B
:102458001220E26E6F007BFFE6FF6F007BFFE6FF56
:102468006F007BFFE6FF6F007BFFE6FFD890133419
:10247800D96E1434DA6ED890D936DA360750D926A0
:102488000850DA22D8901334E16E1434E26ED890F2
:10249800E136E2360D50E1260E50E2226F007BFF56
:1024A800E6FF6F007BFFE6FF6F007BFFE6FF6F0034
:1024B8007BFFE6FF20EE24F00D50D9260E50DA22DD
:1024C800600027F0DEFF60002BF0DEFF60002FF0D9
:1024D800DEFF600033F0DEFF134A142A14BE7EEFDD
:1024E80012F0145009E1030E135CD8A07EEF12F02D
:1024F80080EF12F0DEEF11F0120051345234000177
:10250800866F8651D8A48BEF12F08DEF12F097EFFB
:1025180012F0000E4F6E000E506E000E516E000E3F
:10252800526E04EF13F04FC053F050C054F051C036
:1025380055F052C056F0200EA7EF12F0D890563240
:10254800553254325332E82EA2EF12F05350856FB1
:10255800518EFF0E4F16FF0E5016FF0E5116000E2D
:102568005216960E865F86BFBEEF12F0BCEF12F0D1
:10257800D4EF12F08651800A970FD8B0C6EF12F048
:10258800C8EF12F0CAEF12F08DEF12F0D890523265
:10259800513250324F32863FCAEF12F0ECEF12F050
:1025A8001F0E8665DAEF12F0DCEF12F0E4EF12F09E
:1025B8008DEF12F0D8904F36503651365236860786
:1025C8008651D8A4EAEF12F0ECEF12F0DEEF12F029
:1025D8008551D8B4F2EF12F0F4EF12F0FCEF12F0DC
:1025E800521E511E501E4F6C000E50225122522274
:1025F8004FC04FF050C050F051C051F052C052F08F
:102608001200010EBE6E000EBD6E000EBA6E100EE8
:10261800BB6E000EBC6E060EC66EC268EF0EC36EB1
:10262800D70EC46EEF0EC56E3A017069670E606F03
:10263800EF0E506F060E806F4069000E716F000E2E
:10264800816F000E516F000E416F000E616F000E1A
:102658005A6F000E5B6F000E6A6F000E6B6F000EF4
:102668007A6F000E7B6F000E826F000E426F000EB5
:10267800526F000E626F000E726F4369536963698F
:102688007369070E836F44695469646974690F0E2E
:10269800846F130EDE6F1E0E136F1F0E156F170E4D
:1026A800E56F140EDF6F1200FE0EF66E280EF76E41
:1026B800000EF86E00EE7BF110EE30F009006F00AE
:1026C800D7FFEEFFE550E150F9E1DE0EF66E290E78
:1026D800F76E000EF86E00EE75F010EE0AF00900C5
:1026E8006F00D7FFEEFFE550E150F9E12A0EF66ED4
:1026F8002A0EF76E000EF86E00EE57F010EE06F098
:1027080009006F00D7FFEEFFE550E150F9E100EE58
:1027180060F0150EEE6AE806FDE15D6A080ED56EFA
:10272800000ED66E000ED76E000101EF11F0000EFC
:102738003E01DE6F000EDF6F000EE06F000EE16FEE
:10274800000EE46F000EE56F000EEA6F000EEC6FEE
:10275800000EF16F000EF36F000EF46F000EF56FB0
:10276800000EF66F000EF76F000EF96F000EFA6F8D
:10277800000EFB6F000EFC6F030EFD6F040EFE6F64
:102788001F0EFF6F840EF86F3901A1959185340EE5
:10279800036E2A0E046E03EC15F01200000E3D01C4
:1027A800EC6F000EED6F000EEE6F000EEF6F000E77
:1027B800F06F000EF16FB00EF26F800EF36F000E27
:1027C800F46F070EF56F000EF66F000EF76F000E30
:1027D800F86F000EF96F000EFA6F000E036E000E10
:1027E800046EF9EC14F0000E036E000E046EF4ECA7
:1027F80014F0000E036E000E046EFEEC14F0000ED2
:102808005D6E1200000E391A000E3A1A000E3B1ABD
:10281800800E3C1A35C003F036C004F037C005F00E
:1028280038C006F039C007F03AC008F03BC009F0DC
:102838003CC00AF004EC08F003C035F004C036F0E0
:1028480005C037F006C038F0120020EE0FF0035034
:10285800D9260450DA22000EDE6E000EDD6E20EE60
:1028680011F00350D9260450DA22000EDE6E000E55
:10287800DD6E20EE13F00350D9260450DA22000E44
:10288800DE6E000EDD6E12006F00E8FF01F06F00D3
:10289800ECFF02F0390191A554EF14F056EF14F053
:1028A8005FEF14F0A1A55BEF14F05DEF14F05FEF9C
:1028B80014F066EC14F060000BF0FBFF600007F00A
:1028C800FAFF11003901A19500017F518011D8B498
:1028D80070EF14F072EF14F07EEF14F002D87EEF70
:1028E80014F00500FA6E7F51FD6E8051FE6EFF6A8E
:1028F800FA50120012000000803FE3E86B3FC8A2C4
:10290800673F0000803F7165513F0000803F000035
:10291800803F9D751F3F73CD653F0000803F716507
:10292800513F0000803F18EC15F0AAEC14F005ECBC
:1029380013F0D8EC14F00DEC15F09BEC13F0BCEC94
:1029480014F0D2EC13F0CBEC14F01200000E3901A5
:10295800C06F000EC16F000EC26F000EC36F000E75
:10296800C46F000EC56F000EC66F000EC76F120051
:10297800010EAE6E000EAD6E000EAF6EB80EAB6EF1
:10298800000EAA6E3901A495DE0EAC6E1200830EFD
:102998003D01146F400E156F020E166F000E1C6F6E
:1029A800200E196FC4961200600E3901D96F000EFF
:1029B800DB6F000EDD6F080EDF6F000EDE6F12009A
:1029C8003E01F051066E056AEF510524036E000EB4
:1029D8000620046E12000529643F9D79723F930119
:1029E80003C081F004C082F0120003C083F004C069
:1029F80084F0120003C0ABF104C0ACF1120003C0B4
:102A08007FF004C080F01200036E60000FF011FD2B
:102A18001200820E3E01C16F1200010E0001666FA6
:0E2A280012007B0187019F01D29A120012005A
:020000040020DA
:10000000FF0FFF0FFF0FFF0FFF0FFF0FFF0FFF0F80
:020000040030CA
:0A0000008CFFF7FF9FFFFFFFFFFFDB
:00000001FF
