:040000000DEF00F010
:0400080098EF0BF072
:06001800FF0056EF0BF0A3
:1010000000303132333435363738396162636465E4
:101010006683400220000000000000000000000085
:101020000000061A3A4C3A1A0600000000000000C0
:10103000000000000000D8903234D96E3334DA6EEC
:10104000600ED926000EDA2260003FF0DEFF60005D
:1010500043F0DDFF32C029F033C02AF048C02BF046
:1010600049C02CF0160E256E100E266E29C013F006
:101070002AC014F0D89013361436600E13242D6E47
:10108000000E14202E6E2BC013F02CC014F0D8903C
:1010900013361436600E1324236E000E1420246EB3
:1010A000000E1F6E000E206E000E216E000E226ECE
:1010B000000E286E000E276E60008FF0D9FF6000D2
:1010C00093F0DAFF6F0078FF13F06F0074FF14F0F5
:1010D00013C015F014C016F0000E16BEFF0E176EEA
:1010E000186E6000B7F0D9FF6000BBF0DAFF6F0048
:1010F00078FF19F06F0074FF1AF019C01BF01AC0C6
:101100001CF0000E1CBEFF0E1D6E1E6E15501B2423
:10111000036E16501C20046E17501D20056E1850CB
:101120001E20066E600097F0F6FF60009BF0F7FF50
:10113000F86A0800F550076E086A096A0A6AEDEC59
:101140000AF003501F260450202205502122065089
:101150002222254A262A29502A10D8B4B2EF08F0B4
:10116000B4EF08F0BDEF08F0020E2D5E000E2E5A0F
:101170002906D8A02A06C5EF08F09C0E2D6E000E99
:101180002E6E000E2A6E1E0E296E1E0E2B182C10AF
:10119000D8B4CDEF08F0CFEF08F0D7EF08F0020E8B
:1011A0002326000E24222B4A2C2ADFEF08F0600EA3
:1011B000236E000E246E000E2C6E000E2B6E274A3E
:1011C000282A28BEEDEF08F0285009E10F0E275C11
:1011D000D8A0EDEF08F0EFEF08F05CEF08F060004A
:1011E00097F0F6FF60009BF0F7FFF86A0800F550F3
:1011F000036E046A056A066A6000B7F0D9FF6000F2
:10120000BBF0DAFF6F0078FF07F06F0074FF08F0A3
:10121000000E08BEFF0E096E0A6EEDEC0AF00350D8
:101220001F26045020220550212206502222324A35
:10123000332A484A492A33BE29EF09F0335007E1DF
:101240001F0E325CD8B027EF09F029EF09F02BEF21
:1012500009F02FEF09F0000E336E000E326E49BE1A
:101260003DEF09F0495007E11F0E485CD8B03BEF55
:1012700009F03DEF09F03FEF09F043EF09F0000EF0
:10128000496E000E486E20C00FF021C010F0120011
:10129000CEEC0BF0D28E53EC0CF022EC0BF09E0E49
:1012A000036E000E046E79EC0BF0A00E036E180EA8
:1012B000046E42EC0CF0060E3E01F16F3D01148FFE
:1012C0004004D8A466EF09F068EF09F02DEF0AF0AA
:1012D000000E406E28EC0CF003C034F004C035F072
:1012E00035C02FF0306A2FBE30680F0E2F16000E5B
:1012F0003016010E2F24F66E100E3020F76EF86AAD
:10130000000EF82208006F00D4FF3EF034C02FF02A
:1013100035C030F0040E316E303430322F32312E81
:101320008CEF09F00F0E2F16000E3016010E2F2431
:10133000F66E100E3020F76EF86A000EF8220800E4
:101340006F00D4FF3DF00F0E34142F6E000E3514D5
:10135000306E010E2F24F66E100E3020F76EF86AF4
:10136000000EF82208006F00D4FF3CF0BD8834C0A6
:101370000FF035C010F0000E10BEFF0E116E126E91
:101380001BEC08F00FC042F010C043F043C02FF038
:10139000306A2FBE30680F0E2F16000E3016010E69
:1013A0002F24F66E100E3020F76EF86A000EF82229
:1013B00008006F00D4FF3BF042C02FF043C030F074
:1013C000040E316E303430322F32312EE2EF09F01C
:1013D0000F0E2F16000E3016010E2F24F66E100E73
:1013E0003020F76EF86A000EF82208006F00D4FF74
:1013F0003AF00F0E42142F6E000E4314306E010EA1
:101400002F24F66E100E3020F76EF86A000EF822C8
:1014100008006F00D4FF39F0BD9843500F0B30091E
:10142000386E42C037F03E5002EC0CF03D5002ECFA
:101430000CF03C5002EC0CF02C0E02EC0CF038508E
:1014400002EC0CF03A5002EC0CF0395002EC0CF0CB
:101450000A0E02EC0CF0010E3F6E3650D8A433EFAA
:101460000AF035EF0AF048EF0AF03F50D8B43BEFEE
:101470000AF03DEF0AF048EF0AF0BE90385047EC12
:101480000CF0375047EC0CF0010E366E000E3F6E3C
:101490003D0117AB4EEF0AF050EF0AF060EF09F094
:1014A0003650D8B456EF0AF058EF0AF060EF09F062
:1014B000000E366EBE80BB98BB8860EF09F00DEF62
:1014C00000F0010EBE6E000EBD6E000EBA6E100E64
:1014D000BB6E000EBC6E060EC66EC268EF0EC36E0B
:1014E000970EC46EEF0EC56E3A017069670E606F9D
:1014F000EF0E506F060E806F4069000E716F000E88
:10150000816F000E516F000E416F000E616F000E73
:101510005A6F000E5B6F000E6A6F000E6B6F000E4D
:101520007A6F000E7B6F000E826F000E426F000E0E
:10153000526F000E626F000E726F436953696369E8
:101540007369070E836F44695469646974690F0E87
:10155000846F130EDE6F1E0E136F1F0E156F130EAA
:10156000166F170EE56F140EDF6F1200000E3E01AE
:10157000DE6F000EDF6F000EE06F000EE16F000EF9
:10158000E46F000EE56F000EEA6F000EEC6F000EC8
:10159000F16F000EF36F000EF46F000EF56F000E8A
:1015A000F66F000EF76F000EF96F000EFA6F000E67
:1015B000FB6F000EFC6F030EFD6F040EFE6F1F0E1F
:1015C000FF6F840EF86F3901A1959185AC0E036E03
:1015D000180E046E42EC0CF01200000E0B6E000EA2
:1015E0000C6E000E0D6E000E0E6E03A0FAEF0AF0E8
:1015F000FCEF0AF004EF0BF007500B2608500C220A
:1016000009500D220A500E22D890073608360936A6
:101610000A36D890063205320432033203500410E1
:1016200005100610D8A417EF0BF019EF0BF0F5EF2B
:101630000AF00BC003F00CC004F00DC005F00EC0A2
:1016400006F01200000E3D01EC6F000EED6F000E73
:10165000EE6F000EEF6F000EF06F000EF16FB00E28
:10166000F26F800EF36F000EF46F070EF56F000E31
:10167000F66F000EF76F000EF86F000EF96F000E98
:10168000FA6F000E036E000E046E38EC0CF0000EC4
:10169000036E000E046E33EC0CF0000E036E000EB1
:1016A000046E3DEC0CF0000E416E1200AA0EF66EB8
:1016B000180EF76E000EF86E09006F00D4FF48F0A8
:1016C00009006F00D4FF49F000EE60F03E0EEE6AB4
:1016D000E806FDE100EE32F0120EEE6AE806FDE1EA
:1016E000080ED56E000ED66E000ED76E000148EFC4
:1016F00009F020EE0FF00350D9260450DA22000E34
:10170000DE6E000EDD6E20EE11F00350D92604507F
:10171000DA22000EDE6E000EDD6E20EE13F00350B6
:10172000D9260450DA22000EDE6E000EDD6E1200A5
:101730006F00E8FF01F06F00ECFF02F0390191A5A6
:10174000A4EF0BF0A6EF0BF0AFEF0BF0A1A5ABEF02
:101750000BF0ADEF0BF0AFEF0BF0B6EC0BF0600061
:101760000BF0FBFF600007F0FAFF11003901A195B3
:1017700044504510D8B4BFEF0BF0C1EF0BF0CDEFE4
:101780000BF002D8CDEF0BF00500FA6E4450FD6E61
:101790004550FE6EFF6AFA501200120053EC0CF036
:1017A000E1EC0BF061EC0AF01CEC0CF04CEC0CF0F2
:1017B000B6EC0AF0F3EC0BF022EC0BF00FEC0CF0B3
:1017C0001200000E3901C06F000EC16F000EC26F13
:1017D000000EC36F000EC46F000EC56F000EC66F03
:1017E000000EC76F1200010EAE6E000EAD6E000E41
:1017F000AF6ECF0EAB6E000EAA6E3901A495DE0E51
:10180000AC6E1200036E3901A3A909EF0CF00BEFC7
:101810000CF003EF0CF060000FF0EAFD1200830EF5
:101820003D01146F400E156F020E166F000E1C6FF7
:10183000200E196FC4961200600E3901D96F000E88
:10184000DB6F000EDD6F080EDF6F000EDE6F120023
:101850003E01F051066E056AEF510524036E000E3D
:101860000620046E120003C0B5F004C0B6F01200EA
:1018700003C046F004C047F0120003C0B3F004C038
:10188000B4F0120003C044F004C045F01200036E2F
:1018900060000FF011FD1200820E3E01C16F1200B8
:0E18A000010E406E1200D29A120001001200DA
:020000040020DA
:10000000FF0FFF0FFF0FFF0FFF0FFF0FFF0FFF0F80
:020000040030CA
:0A0000008CFFF7FF9FFFFFFFFFFFDB
:00000001FF
